{"abi":[{"type":"constructor","inputs":[],"stateMutability":"nonpayable"},{"type":"function","name":"DOMAIN_SEPARATOR","inputs":[],"outputs":[{"name":"result","type":"bytes32","internalType":"bytes32"}],"stateMutability":"view"},{"type":"function","name":"MINIMUM_LIQUIDITY","inputs":[],"outputs":[{"name":"","type":"uint256","internalType":"uint256"}],"stateMutability":"view"},{"type":"function","name":"allowance","inputs":[{"name":"owner","type":"address","internalType":"address"},{"name":"spender","type":"address","internalType":"address"}],"outputs":[{"name":"result","type":"uint256","internalType":"uint256"}],"stateMutability":"view"},{"type":"function","name":"approve","inputs":[{"name":"spender","type":"address","internalType":"address"},{"name":"amount","type":"uint256","internalType":"uint256"}],"outputs":[{"name":"","type":"bool","internalType":"bool"}],"stateMutability":"nonpayable"},{"type":"function","name":"balanceOf","inputs":[{"name":"owner","type":"address","internalType":"address"}],"outputs":[{"name":"result","type":"uint256","internalType":"uint256"}],"stateMutability":"view"},{"type":"function","name":"burn","inputs":[{"name":"to","type":"address","internalType":"address"}],"outputs":[{"name":"amount0","type":"uint256","internalType":"uint256"},{"name":"amount1","type":"uint256","internalType":"uint256"}],"stateMutability":"nonpayable"},{"type":"function","name":"decimals","inputs":[],"outputs":[{"name":"","type":"uint8","internalType":"uint8"}],"stateMutability":"view"},{"type":"function","name":"factory","inputs":[],"outputs":[{"name":"","type":"address","internalType":"address"}],"stateMutability":"view"},{"type":"function","name":"getReserves","inputs":[],"outputs":[{"name":"_reserve0","type":"uint112","internalType":"uint112"},{"name":"_reserve1","type":"uint112","internalType":"uint112"},{"name":"_blockTimestampLast","type":"uint32","internalType":"uint32"}],"stateMutability":"view"},{"type":"function","name":"initialize","inputs":[{"name":"_token0","type":"address","internalType":"address"},{"name":"_token1","type":"address","internalType":"address"}],"outputs":[],"stateMutability":"nonpayable"},{"type":"function","name":"kLast","inputs":[],"outputs":[{"name":"","type":"uint256","internalType":"uint256"}],"stateMutability":"view"},{"type":"function","name":"mint","inputs":[{"name":"to","type":"address","internalType":"address"}],"outputs":[{"name":"liquidity","type":"uint256","internalType":"uint256"}],"stateMutability":"nonpayable"},{"type":"function","name":"name","inputs":[],"outputs":[{"name":"","type":"string","internalType":"string"}],"stateMutability":"pure"},{"type":"function","name":"nonces","inputs":[{"name":"owner","type":"address","internalType":"address"}],"outputs":[{"name":"result","type":"uint256","internalType":"uint256"}],"stateMutability":"view"},{"type":"function","name":"permit","inputs":[{"name":"owner","type":"address","internalType":"address"},{"name":"spender","type":"address","internalType":"address"},{"name":"value","type":"uint256","internalType":"uint256"},{"name":"deadline","type":"uint256","internalType":"uint256"},{"name":"v","type":"uint8","internalType":"uint8"},{"name":"r","type":"bytes32","internalType":"bytes32"},{"name":"s","type":"bytes32","internalType":"bytes32"}],"outputs":[],"stateMutability":"nonpayable"},{"type":"function","name":"price0CumulativeLast","inputs":[],"outputs":[{"name":"","type":"uint256","internalType":"uint256"}],"stateMutability":"view"},{"type":"function","name":"price1CumulativeLast","inputs":[],"outputs":[{"name":"","type":"uint256","internalType":"uint256"}],"stateMutability":"view"},{"type":"function","name":"skim","inputs":[{"name":"to","type":"address","internalType":"address"}],"outputs":[],"stateMutability":"nonpayable"},{"type":"function","name":"swap","inputs":[{"name":"amount0Out","type":"uint256","internalType":"uint256"},{"name":"amount1Out","type":"uint256","internalType":"uint256"},{"name":"to","type":"address","internalType":"address"},{"name":"data","type":"bytes","internalType":"bytes"}],"outputs":[],"stateMutability":"nonpayable"},{"type":"function","name":"symbol","inputs":[],"outputs":[{"name":"","type":"string","internalType":"string"}],"stateMutability":"pure"},{"type":"function","name":"sync","inputs":[],"outputs":[],"stateMutability":"nonpayable"},{"type":"function","name":"token0","inputs":[],"outputs":[{"name":"","type":"address","internalType":"address"}],"stateMutability":"view"},{"type":"function","name":"token1","inputs":[],"outputs":[{"name":"","type":"address","internalType":"address"}],"stateMutability":"view"},{"type":"function","name":"totalSupply","inputs":[],"outputs":[{"name":"result","type":"uint256","internalType":"uint256"}],"stateMutability":"view"},{"type":"function","name":"transfer","inputs":[{"name":"to","type":"address","internalType":"address"},{"name":"amount","type":"uint256","internalType":"uint256"}],"outputs":[{"name":"","type":"bool","internalType":"bool"}],"stateMutability":"nonpayable"},{"type":"function","name":"transferFrom","inputs":[{"name":"from","type":"address","internalType":"address"},{"name":"to","type":"address","internalType":"address"},{"name":"amount","type":"uint256","internalType":"uint256"}],"outputs":[{"name":"","type":"bool","internalType":"bool"}],"stateMutability":"nonpayable"},{"type":"event","name":"Approval","inputs":[{"name":"owner","type":"address","indexed":true,"internalType":"address"},{"name":"spender","type":"address","indexed":true,"internalType":"address"},{"name":"amount","type":"uint256","indexed":false,"internalType":"uint256"}],"anonymous":false},{"type":"event","name":"Burn","inputs":[{"name":"sender","type":"address","indexed":true,"internalType":"address"},{"name":"amount0","type":"uint256","indexed":false,"internalType":"uint256"},{"name":"amount1","type":"uint256","indexed":false,"internalType":"uint256"},{"name":"to","type":"address","indexed":true,"internalType":"address"}],"anonymous":false},{"type":"event","name":"Mint","inputs":[{"name":"sender","type":"address","indexed":true,"internalType":"address"},{"name":"amount0","type":"uint256","indexed":false,"internalType":"uint256"},{"name":"amount1","type":"uint256","indexed":false,"internalType":"uint256"}],"anonymous":false},{"type":"event","name":"Swap","inputs":[{"name":"sender","type":"address","indexed":true,"internalType":"address"},{"name":"amount0In","type":"uint256","indexed":false,"internalType":"uint256"},{"name":"amount1In","type":"uint256","indexed":false,"internalType":"uint256"},{"name":"amount0Out","type":"uint256","indexed":false,"internalType":"uint256"},{"name":"amount1Out","type":"uint256","indexed":false,"internalType":"uint256"},{"name":"to","type":"address","indexed":true,"internalType":"address"}],"anonymous":false},{"type":"event","name":"Sync","inputs":[{"name":"reserve0","type":"uint112","indexed":false,"internalType":"uint112"},{"name":"reserve1","type":"uint112","indexed":false,"internalType":"uint112"}],"anonymous":false},{"type":"event","name":"Transfer","inputs":[{"name":"from","type":"address","indexed":true,"internalType":"address"},{"name":"to","type":"address","indexed":true,"internalType":"address"},{"name":"amount","type":"uint256","indexed":false,"internalType":"uint256"}],"anonymous":false},{"type":"error","name":"AllowanceOverflow","inputs":[]},{"type":"error","name":"AllowanceUnderflow","inputs":[]},{"type":"error","name":"InsufficientAllowance","inputs":[]},{"type":"error","name":"InsufficientBalance","inputs":[]},{"type":"error","name":"InvalidPermit","inputs":[]},{"type":"error","name":"PermitExpired","inputs":[]},{"type":"error","name":"TotalSupplyOverflow","inputs":[]}],"bytecode":{"object":"0x608060405260016007553480156013575f5ffd5b505f80546001600160a01b0319163317905561218f806100325f395ff3fe608060405234801561000f575f5ffd5b5060043610610187575f3560e01c806370a08231116100d9578063ba9a7a5611610093578063d21220a71161006e578063d21220a71461039a578063d505accf146103ad578063dd62ed3e146103c0578063fff6cae9146103e8575f5ffd5b8063ba9a7a561461036c578063bc25cf7714610375578063c45a015514610388575f5ffd5b806370a08231146102bc5780637464fc3d146102e15780637ecebe00146102ea57806389afcb441461030f57806395d89b4114610337578063a9059cbb14610359575f5ffd5b806323b872dd11610144578063485cc9551161011f578063485cc955146102845780635909c0d5146102975780635a3d5493146102a05780636a627842146102a9575f5ffd5b806323b872dd1461025a578063313ce5671461026d5780633644e5151461027c575f5ffd5b8063022c0d9f1461018b57806306fdde03146101a05780630902f1ac146101be578063095ea7b3146101f25780630dfe16811461021557806318160ddd14610240575b5f5ffd5b61019e610199366004611dbe565b6103f0565b005b6101a861090d565b6040516101b59190611e4e565b60405180910390f35b6101c6610931565b604080516001600160701b03948516815293909216602084015263ffffffff16908201526060016101b5565b610205610200366004611e83565b61095b565b60405190151581526020016101b5565b600154610228906001600160a01b031681565b6040516001600160a01b0390911681526020016101b5565b6805345cdf77eb68f44c545b6040519081526020016101b5565b610205610268366004611ead565b6109ab565b604051601281526020016101b5565b61024c610a52565b61019e610292366004611eeb565b610ace565b61024c60045481565b61024c60055481565b61024c6102b7366004611f22565b610b4c565b61024c6102ca366004611f22565b6387a211a2600c9081525f91909152602090205490565b61024c60065481565b61024c6102f8366004611f22565b6338377508600c9081525f91909152602090205490565b61032261031d366004611f22565b610e22565b604080519283526020830191909152016101b5565b6040805180820190915260068152652aa72496ab1960d11b60208201526101a8565b610205610367366004611e83565b6111af565b61024c6103e881565b61019e610383366004611f22565b611213565b5f54610228906001600160a01b031681565b600254610228906001600160a01b031681565b61019e6103bb366004611f44565b611386565b61024c6103ce366004611eeb565b602052637f5e9f20600c9081525f91909152603490205490565b61019e611508565b60075460011461041b5760405162461bcd60e51b815260040161041290611fb5565b60405180910390fd5b5f6007558415158061042c57505f84115b6104865760405162461bcd60e51b815260206004820152602560248201527f556e697377617056323a20494e53554646494349454e545f4f55545055545f416044820152641353d5539560da1b6064820152608401610412565b5f5f610490610931565b5091509150816001600160701b0316871080156104b55750806001600160701b031686105b61050b5760405162461bcd60e51b815260206004820152602160248201527f556e697377617056323a20494e53554646494349454e545f4c495155494449546044820152605960f81b6064820152608401610412565b6001546002545f9182916001600160a01b039182169190811690891682148015906105485750806001600160a01b0316896001600160a01b031614155b61058c5760405162461bcd60e51b8152602060048201526015602482015274556e697377617056323a20494e56414c49445f544f60581b6044820152606401610412565b8a156105a9576001546105a9906001600160a01b03168a8d611627565b89156105c6576002546105c6906001600160a01b03168a8c611627565b861561062e576040516304347a1760e21b81526001600160a01b038a16906310d1e85c906106009033908f908f908e908e90600401611fe0565b5f604051808303815f87803b158015610617575f5ffd5b505af1158015610629573d5f5f3e3d5ffd5b505050505b6040516370a0823160e01b81523060048201526001600160a01b038316906370a0823190602401602060405180830381865afa158015610670573d5f5f3e3d5ffd5b505050506040513d601f19601f82011682018060405250810190610694919061202b565b6040516370a0823160e01b81523060048201529094506001600160a01b038216906370a0823190602401602060405180830381865afa1580156106d9573d5f5f3e3d5ffd5b505050506040513d601f19601f820116820180604052508101906106fd919061202b565b925050505f89856001600160701b03166107179190612056565b8311610723575f610740565b6107368a6001600160701b038716612056565b6107409084612056565b90505f6107568a6001600160701b038716612056565b8311610762575f61077f565b6107758a6001600160701b038716612056565b61077f9084612056565b90505f82118061078e57505f81115b6107e65760405162461bcd60e51b8152602060048201526024808201527f556e697377617056323a20494e53554646494349454e545f494e5055545f414d60448201526313d5539560e21b6064820152608401610412565b5f6107f2836003612069565b6107fe866103e8612069565b6108089190612056565b90505f610816836003612069565b610822866103e8612069565b61082c9190612056565b90506108446001600160701b03808916908a16612069565b61085190620f4240612069565b61085b8284612069565b10156108985760405162461bcd60e51b815260206004820152600c60248201526b556e697377617056323a204b60a01b6044820152606401610412565b50506108a68484888861167e565b60408051838152602081018390529081018c9052606081018b90526001600160a01b038a169033907fd78ad95fa46c994b6551d0da85fc275fe613ce37657fb8d5e3d130840159d8229060800160405180910390a350506001600755505050505050505050565b60408051808201909152600a8152692ab734b9bbb0b8102b1960b11b602082015290565b6003546001600160701b0380821692600160701b830490911691600160e01b900463ffffffff1690565b5f82602052637f5e9f20600c52335f52816034600c2055815f52602c5160601c337f8c5be1e5ebec7d5bd14f71427d1e84f3dd0314c0f7b2291e5b200ac8c7c3b92560205fa35060015b92915050565b5f8360601b33602052637f5e9f208117600c526034600c20805460018101156109e957808511156109e3576313be252b5f526004601cfd5b84810382555b50506387a211a28117600c526020600c20805480851115610a115763f4d678b85f526004601cfd5b84810382555050835f526020600c208381540181555082602052600c5160601c8160601c5f51602061213a5f395f51905f52602080a3505060019392505050565b5f80610a5c61090d565b8051906020012090506040517f8b73c3c69bb8fe3d512ecc4cf759cc79239f7b179b0ffacaa9a75d522b39400f81528160208201527fc89efdaa54c0f20c7adf612882df0950f5a951637e0307cdcb4c672f298b8bc6604082015246606082015230608082015260a081209250505090565b5f546001600160a01b03163314610b1e5760405162461bcd60e51b81526020600482015260146024820152732ab734b9bbb0b82b191d102327a92124a22222a760611b6044820152606401610412565b600180546001600160a01b039384166001600160a01b03199182161790915560028054929093169116179055565b5f600754600114610b6f5760405162461bcd60e51b815260040161041290611fb5565b5f600781905580610b7e610931565b506001546040516370a0823160e01b81523060048201529294509092505f916001600160a01b03909116906370a0823190602401602060405180830381865afa158015610bcd573d5f5f3e3d5ffd5b505050506040513d601f19601f82011682018060405250810190610bf1919061202b565b6002546040516370a0823160e01b81523060048201529192505f916001600160a01b03909116906370a0823190602401602060405180830381865afa158015610c3c573d5f5f3e3d5ffd5b505050506040513d601f19601f82011682018060405250810190610c60919061202b565b90505f610c766001600160701b03861684612056565b90505f610c8c6001600160701b03861684612056565b90505f610c998787611876565b90505f610cad6805345cdf77eb68f44c5490565b9050805f03610ce8576103e8610ccb610cc68587612069565b6119a7565b610cd59190612056565b9850610ce35f6103e8611a33565b610d35565b610d326001600160701b038916610cff8387612069565b610d099190612094565b6001600160701b038916610d1d8487612069565b610d279190612094565b808218908211021890565b98505b5f8911610d955760405162461bcd60e51b815260206004820152602860248201527f556e697377617056323a20494e53554646494349454e545f4c495155494449546044820152671657d3525395115160c21b6064820152608401610412565b610d9f8a8a611a33565b610dab86868a8a61167e565b8115610dd457600354610dd0906001600160701b03600160701b820481169116612069565b6006555b604080518581526020810185905233917f4c209b5fc8ad50758f13e2e1088ba56a560dff690a1c6fef26394f4c03821c4f910160405180910390a25050600160075550949695505050505050565b5f5f600754600114610e465760405162461bcd60e51b815260040161041290611fb5565b5f600781905580610e55610931565b506001546002546040516370a0823160e01b81523060048201529395509193506001600160a01b03908116929116905f9083906370a0823190602401602060405180830381865afa158015610eac573d5f5f3e3d5ffd5b505050506040513d601f19601f82011682018060405250810190610ed0919061202b565b6040516370a0823160e01b81523060048201529091505f906001600160a01b038416906370a0823190602401602060405180830381865afa158015610f17573d5f5f3e3d5ffd5b505050506040513d601f19601f82011682018060405250810190610f3b919061202b565b90505f610f59306387a211a2600c9081525f91909152602090205490565b90505f610f668888611876565b90505f610f7a6805345cdf77eb68f44c5490565b905080610f878685612069565b610f919190612094565b9a5080610f9e8585612069565b610fa89190612094565b99505f8b118015610fb857505f8a115b6110155760405162461bcd60e51b815260206004820152602860248201527f556e697377617056323a20494e53554646494349454e545f4c495155494449546044820152671657d0955493915160c21b6064820152608401610412565b61101f3084611a9c565b600154611036906001600160a01b03168d8d611627565b60025461104d906001600160a01b03168d8c611627565b6040516370a0823160e01b81523060048201526001600160a01b038816906370a0823190602401602060405180830381865afa15801561108f573d5f5f3e3d5ffd5b505050506040513d601f19601f820116820180604052508101906110b3919061202b565b6040516370a0823160e01b81523060048201529095506001600160a01b038716906370a0823190602401602060405180830381865afa1580156110f8573d5f5f3e3d5ffd5b505050506040513d601f19601f8201168201806040525081019061111c919061202b565b935061112a85858b8b61167e565b81156111535760035461114f906001600160701b03600160701b820481169116612069565b6006555b604080518c8152602081018c90526001600160a01b038e169133917fdccd412f0b1252819cb1fd330b93224ca42612892bb3f4f789976e6d81936496910160405180910390a35050505050505050506001600781905550915091565b5f6387a211a2600c52335f526020600c208054808411156111d75763f4d678b85f526004601cfd5b83810382555050825f526020600c208281540181555081602052600c5160601c335f51602061213a5f395f51905f52602080a350600192915050565b6007546001146112355760405162461bcd60e51b815260040161041290611fb5565b5f6007556001546002546003546040516370a0823160e01b81523060048201526001600160a01b0393841693909216916112de9185916001600160701b039091169085906370a0823190602401602060405180830381865afa15801561129d573d5f5f3e3d5ffd5b505050506040513d601f19601f820116820180604052508101906112c1919061202b565b6112cb9190612056565b6001546001600160a01b03169190611627565b6003546040516370a0823160e01b815230600482015261137c918591600160701b9091046001600160701b0316906001600160a01b038516906370a0823190602401602060405180830381865afa15801561133b573d5f5f3e3d5ffd5b505050506040513d601f19601f8201168201806040525081019061135f919061202b565b6113699190612056565b6002546001600160a01b03169190611627565b5050600160075550565b5f61138f61090d565b805190602001209050844211156113ad57631a15a3cc5f526004601cfd5b6040518860601b60601c98508760601b60601c975065383775081901600e52885f526020600c2080547f8b73c3c69bb8fe3d512ecc4cf759cc79239f7b179b0ffacaa9a75d522b39400f83528360208401527fc89efdaa54c0f20c7adf612882df0950f5a951637e0307cdcb4c672f298b8bc6604084015246606084015230608084015260a08320602e527f6e71edae12b1b97f4d1f60370fef10105fa2faae0126114a169c64845d6126c983528a60208401528960408401528860608401528060808401528760a084015260c08320604e526042602c205f528660ff16602052856040528460605260208060805f60015afa8b3d51146114b55763ddafbaef5f526004601cfd5b0190556303faf4f960a51b88176040526034602c2087905587897f8c5be1e5ebec7d5bd14f71427d1e84f3dd0314c0f7b2291e5b200ac8c7c3b925602060608501a360405250505f606052505050505050565b60075460011461152a5760405162461bcd60e51b815260040161041290611fb5565b5f6007556001546040516370a0823160e01b8152306004820152611620916001600160a01b0316906370a0823190602401602060405180830381865afa158015611576573d5f5f3e3d5ffd5b505050506040513d601f19601f8201168201806040525081019061159a919061202b565b6002546040516370a0823160e01b81523060048201526001600160a01b03909116906370a0823190602401602060405180830381865afa1580156115e0573d5f5f3e3d5ffd5b505050506040513d601f19601f82011682018060405250810190611604919061202b565b6003546001600160701b0380821691600160701b90041661167e565b6001600755565b604080516001600160a01b038416602482015260448082018490528251808303909101815260649091019091526020810180516001600160e01b031663a9059cbb60e01b179052611679908490611afd565b505050565b6001600160701b03841180159061169c57506001600160701b038311155b6116de5760405162461bcd60e51b8152602060048201526013602482015272556e697377617056323a204f564552464c4f5760681b6044820152606401610412565b5f6116ee640100000000426120a7565b6003549091505f9061170d90600160e01b900463ffffffff16836120ba565b90505f8163ffffffff1611801561172c57506001600160701b03841615155b801561174057506001600160701b03831615155b156117de578063ffffffff16611771856001600160701b0316856001600160701b0316611bd090919063ffffffff16565b61177b9190612069565b60045f82825461178b91906120d6565b925050819055508063ffffffff166117be846001600160701b0316866001600160701b0316611bd090919063ffffffff16565b6117c89190612069565b60055f8282546117d891906120d6565b90915550505b6003805463ffffffff8416600160e01b026001600160e01b036001600160701b03898116600160701b9081026001600160e01b03199095168c83161794909417918216831794859055604080519382169282169290921783529290930490911660208201527f1c411e9a96e071241c2f21f7726b17ae89e3cab4c78be50e062b03a9fffbbad1910160405180910390a1505050505050565b5f805460408051622fcfcb60e31b8152905183926001600160a01b03169163017e7e589160048083019260209291908290030181865afa1580156118bc573d5f5f3e3d5ffd5b505050506040513d601f19601f820116820180604052508101906118e091906120e9565b6006546001600160a01b03821615801594509192509061199457801561198f575f61191a610cc66001600160701b03808816908916612069565b90505f611926836119a7565b90508082111561198c575f61193b8284612056565b6805345cdf77eb68f44c546119509190612069565b90505f8261195f856005612069565b61196991906120d6565b90505f6119768284612094565b90508015611988576119888782611a33565b5050505b50505b61199f565b801561199f575f6006555b505092915050565b70ffffffffffffffffffffffffffffffffff811160071b81811c68ffffffffffffffffff1060061b1781811c64ffffffffff1060051b1781811c62ffffff1060041b1781811c620100000160b5600192831c1b0260121c80830401811c80830401811c80830401811c80830401811c80830401811c80830401811c80830401901c908190048111900390565b6805345cdf77eb68f44c5481810181811015611a565763e5cfe9575f526004601cfd5b806805345cdf77eb68f44c5550506387a211a2600c52815f526020600c208181540181555080602052600c5160601c5f5f51602061213a5f395f51905f52602080a35050565b6387a211a2600c52815f526020600c20805480831115611ac35763f4d678b85f526004601cfd5b82900390556805345cdf77eb68f44c805482900390555f8181526001600160a01b0383165f51602061213a5f395f51905f52602083a35050565b5f611b51826040518060400160405280602081526020017f5361666545524332303a206c6f772d6c6576656c2063616c6c206661696c6564815250856001600160a01b0316611c1d9092919063ffffffff16565b905080515f1480611b71575080806020019051810190611b719190612104565b6116795760405162461bcd60e51b815260206004820152602a60248201527f5361666545524332303a204552433230206f7065726174696f6e20646964206e6044820152691bdd081cdd58d8d9595960b21b6064820152608401610412565b5f7812725dd1d243aba0e75fe645cc4873f9e65afe688c928e1f218311670de0b6b3a764000002158202611c0b57637c5f487d5f526004601cfd5b50670de0b6b3a7640000919091020490565b6060611c2b84845f85611c33565b949350505050565b606082471015611c945760405162461bcd60e51b815260206004820152602660248201527f416464726573733a20696e73756666696369656e742062616c616e636520666f6044820152651c8818d85b1b60d21b6064820152608401610412565b5f5f866001600160a01b03168587604051611caf9190612123565b5f6040518083038185875af1925050503d805f8114611ce9576040519150601f19603f3d011682016040523d82523d5f602084013e611cee565b606091505b5091509150611cff87838387611d0a565b979650505050505050565b60608315611d785782515f03611d71576001600160a01b0385163b611d715760405162461bcd60e51b815260206004820152601d60248201527f416464726573733a2063616c6c20746f206e6f6e2d636f6e74726163740000006044820152606401610412565b5081611c2b565b611c2b8383815115611d8d5781518083602001fd5b8060405162461bcd60e51b81526004016104129190611e4e565b6001600160a01b0381168114611dbb575f5ffd5b50565b5f5f5f5f5f60808688031215611dd2575f5ffd5b85359450602086013593506040860135611deb81611da7565b9250606086013567ffffffffffffffff811115611e06575f5ffd5b8601601f81018813611e16575f5ffd5b803567ffffffffffffffff811115611e2c575f5ffd5b886020828401011115611e3d575f5ffd5b959894975092955050506020019190565b602081525f82518060208401528060208501604085015e5f604082850101526040601f19601f83011684010191505092915050565b5f5f60408385031215611e94575f5ffd5b8235611e9f81611da7565b946020939093013593505050565b5f5f5f60608486031215611ebf575f5ffd5b8335611eca81611da7565b92506020840135611eda81611da7565b929592945050506040919091013590565b5f5f60408385031215611efc575f5ffd5b8235611f0781611da7565b91506020830135611f1781611da7565b809150509250929050565b5f60208284031215611f32575f5ffd5b8135611f3d81611da7565b9392505050565b5f5f5f5f5f5f5f60e0888a031215611f5a575f5ffd5b8735611f6581611da7565b96506020880135611f7581611da7565b95506040880135945060608801359350608088013560ff81168114611f98575f5ffd5b9699959850939692959460a0840135945060c09093013592915050565b602080825260119082015270155b9a5cddd85c158c8e881313d0d2d151607a1b604082015260600190565b60018060a01b038616815284602082015283604082015260806060820152816080820152818360a08301375f81830160a090810191909152601f909201601f19160101949350505050565b5f6020828403121561203b575f5ffd5b5051919050565b634e487b7160e01b5f52601160045260245ffd5b818103818111156109a5576109a5612042565b80820281158282048414176109a5576109a5612042565b634e487b7160e01b5f52601260045260245ffd5b5f826120a2576120a2612080565b500490565b5f826120b5576120b5612080565b500690565b63ffffffff82811682821603908111156109a5576109a5612042565b808201808211156109a5576109a5612042565b5f602082840312156120f9575f5ffd5b8151611f3d81611da7565b5f60208284031215612114575f5ffd5b81518015158114611f3d575f5ffd5b5f82518060208501845e5f92019182525091905056feddf252ad1be2c89b69c2b068fc378daa952ba7f163c4a11628f55a4df523b3efa264697066735822122028675eb4428ef71524e14c2f0bebf3a6c86d0f25520ce26110bbbbe9ef42f7e964736f6c634300081c0033","linkReferences":{}},"methodIdentifiers":{"DOMAIN_SEPARATOR()":"3644e515","MINIMUM_LIQUIDITY()":"ba9a7a56","allowance(address,address)":"dd62ed3e","approve(address,uint256)":"095ea7b3","balanceOf(address)":"70a08231","burn(address)":"89afcb44","decimals()":"313ce567","factory()":"c45a0155","getReserves()":"0902f1ac","initialize(address,address)":"485cc955","kLast()":"7464fc3d","mint(address)":"6a627842","name()":"06fdde03","nonces(address)":"7ecebe00","permit(address,address,uint256,uint256,uint8,bytes32,bytes32)":"d505accf","price0CumulativeLast()":"5909c0d5","price1CumulativeLast()":"5a3d5493","skim(address)":"bc25cf77","swap(uint256,uint256,address,bytes)":"022c0d9f","symbol()":"95d89b41","sync()":"fff6cae9","token0()":"0dfe1681","token1()":"d21220a7","totalSupply()":"18160ddd","transfer(address,uint256)":"a9059cbb","transferFrom(address,address,uint256)":"23b872dd"},"id":8}