{"contracts/test/RouterEventEmitter.sol":{"RouterEventEmitter":{"abi":[{"anonymous":false,"inputs":[{"indexed":false,"internalType":"uint256[]","name":"amounts","type":"uint256[]"}],"name":"Amounts","type":"event"},{"inputs":[{"internalType":"address","name":"router","type":"address"},{"internalType":"uint256","name":"amountOut","type":"uint256"},{"internalType":"address[]","name":"path","type":"address[]"},{"internalType":"address","name":"to","type":"address"},{"internalType":"uint256","name":"deadline","type":"uint256"}],"name":"swapETHForExactTokens","outputs":[],"stateMutability":"payable","type":"function"},{"inputs":[{"internalType":"address","name":"router","type":"address"},{"internalType":"uint256","name":"amountOutMin","type":"uint256"},{"internalType":"address[]","name":"path","type":"address[]"},{"internalType":"address","name":"to","type":"address"},{"internalType":"uint256","name":"deadline","type":"uint256"}],"name":"swapExactETHForTokens","outputs":[],"stateMutability":"payable","type":"function"},{"inputs":[{"internalType":"address","name":"router","type":"address"},{"internalType":"uint256","name":"amountIn","type":"uint256"},{"internalType":"uint256","name":"amountOutMin","type":"uint256"},{"internalType":"address[]","name":"path","type":"address[]"},{"internalType":"address","name":"to","type":"address"},{"internalType":"uint256","name":"deadline","type":"uint256"}],"name":"swapExactTokensForETH","outputs":[],"stateMutability":"nonpayable","type":"function"},{"inputs":[{"internalType":"address","name":"router","type":"address"},{"internalType":"uint256","name":"amountIn","type":"uint256"},{"internalType":"uint256","name":"amountOutMin","type":"uint256"},{"internalType":"address[]","name":"path","type":"address[]"},{"internalType":"address","name":"to","type":"address"},{"internalType":"uint256","name":"deadline","type":"uint256"}],"name":"swapExactTokensForTokens","outputs":[],"stateMutability":"nonpayable","type":"function"},{"inputs":[{"internalType":"address","name":"router","type":"address"},{"internalType":"uint256","name":"amountOut","type":"uint256"},{"internalType":"uint256","name":"amountInMax","type":"uint256"},{"internalType":"address[]","name":"path","type":"address[]"},{"internalType":"address","name":"to","type":"address"},{"internalType":"uint256","name":"deadline","type":"uint256"}],"name":"swapTokensForExactETH","outputs":[],"stateMutability":"nonpayable","type":"function"},{"inputs":[{"internalType":"address","name":"router","type":"address"},{"internalType":"uint256","name":"amountOut","type":"uint256"},{"internalType":"uint256","name":"amountInMax","type":"uint256"},{"internalType":"address[]","name":"path","type":"address[]"},{"internalType":"address","name":"to","type":"address"},{"internalType":"uint256","name":"deadline","type":"uint256"}],"name":"swapTokensForExactTokens","outputs":[],"stateMutability":"nonpayable","type":"function"},{"stateMutability":"payable","type":"receive"}],"evm":{"bytecode":{"linkReferences":{},"object":"608060405234801561001057600080fd5b506108f1806100206000396000f3fe6080604052600436106100695760003560e01c8063b05f579e11610043578063b05f579e146100d7578063fa3219d5146100ea578063fde1adda1461010a57600080fd5b806322b5841014610075578063375734d9146100975780639c91fcb5146100b757600080fd5b3661007057005b600080fd5b34801561008157600080fd5b5061009561009036600461055b565b61011d565b005b3480156100a357600080fd5b506100956100b236600461055b565b61028a565b3480156100c357600080fd5b506100956100d236600461055b565b6102c7565b6100956100e53660046105dd565b610304565b3480156100f657600080fd5b5061009561010536600461055b565b61046e565b6100956101183660046105dd565b6104ab565b6000808873ffffffffffffffffffffffffffffffffffffffff16638803dbee60e01b89898989898960405160240161015a969594939291906106a8565b604080517fffffffffffffffffffffffffffffffffffffffffffffffffffffffffffffffe08184030181529181526020820180517bffffffffffffffffffffffffffffffffffffffffffffffffffffffff167fffffffff000000000000000000000000000000000000000000000000000000009094169390931790925290516101e391906106f3565b600060405180830381855af49150503d806000811461021e576040519150601f19603f3d011682016040523d82523d6000602084013e610223565b606091505b50915091508161023557610235610722565b7f4cc17991e3610e3400e74a8306aa421daaee1e3446fa22b490604610999e10b38180602001905181019061026a9190610780565b604051610277919061085c565b60405180910390a1505050505050505050565b6000808873ffffffffffffffffffffffffffffffffffffffff166338ed173960e01b89898989898960405160240161015a969594939291906106a8565b6000808873ffffffffffffffffffffffffffffffffffffffff166318cbafe560e01b89898989898960405160240161015a969594939291906106a8565b6000808773ffffffffffffffffffffffffffffffffffffffff1663fb3bdb4160e01b888888888860405160240161033f9594939291906108a0565b604080517fffffffffffffffffffffffffffffffffffffffffffffffffffffffffffffffe08184030181529181526020820180517bffffffffffffffffffffffffffffffffffffffffffffffffffffffff167fffffffff000000000000000000000000000000000000000000000000000000009094169390931790925290516103c891906106f3565b600060405180830381855af49150503d8060008114610403576040519150601f19603f3d011682016040523d82523d6000602084013e610408565b606091505b50915091508161041a5761041a610722565b7f4cc17991e3610e3400e74a8306aa421daaee1e3446fa22b490604610999e10b38180602001905181019061044f9190610780565b60405161045c919061085c565b60405180910390a15050505050505050565b6000808873ffffffffffffffffffffffffffffffffffffffff16634a25d94a60e01b89898989898960405160240161015a969594939291906106a8565b6000808773ffffffffffffffffffffffffffffffffffffffff16637ff36ab560e01b888888888860405160240161033f9594939291906108a0565b803573ffffffffffffffffffffffffffffffffffffffff8116811461050a57600080fd5b919050565b60008083601f84011261052157600080fd5b50813567ffffffffffffffff81111561053957600080fd5b6020830191508360208260051b850101111561055457600080fd5b9250929050565b600080600080600080600060c0888a03121561057657600080fd5b61057f886104e6565b96506020880135955060408801359450606088013567ffffffffffffffff8111156105a957600080fd5b6105b58a828b0161050f565b90955093506105c89050608089016104e6565b915060a0880135905092959891949750929550565b60008060008060008060a087890312156105f657600080fd5b6105ff876104e6565b955060208701359450604087013567ffffffffffffffff81111561062257600080fd5b61062e89828a0161050f565b90955093506106419050606088016104e6565b9150608087013590509295509295509295565b8183526000602080850194508260005b8581101561069d5773ffffffffffffffffffffffffffffffffffffffff61068a836104e6565b1687529582019590820190600101610664565b509495945050505050565b86815285602082015260a0604082015260006106c860a083018688610654565b73ffffffffffffffffffffffffffffffffffffffff9490941660608301525060800152949350505050565b6000825160005b8181101561071457602081860181015185830152016106fa565b506000920191825250919050565b7f4e487b7100000000000000000000000000000000000000000000000000000000600052600160045260246000fd5b7f4e487b7100000000000000000000000000000000000000000000000000000000600052604160045260246000fd5b6000602080838503121561079357600080fd5b825167ffffffffffffffff808211156107ab57600080fd5b818501915085601f8301126107bf57600080fd5b8151818111156107d1576107d1610751565b8060051b6040517fffffffffffffffffffffffffffffffffffffffffffffffffffffffffffffffe0603f8301168101818110858211171561081457610814610751565b60405291825284820192508381018501918883111561083257600080fd5b938501935b8285101561085057845184529385019392850192610837565b98975050505050505050565b6020808252825182820181905260009190848201906040850190845b8181101561089457835183529284019291840191600101610878565b50909695505050505050565b8581526080602082015260006108ba608083018688610654565b73ffffffffffffffffffffffffffffffffffffffff9490941660408301525060600152939250505056fea164736f6c6343000816000a","opcodes":"PUSH1 0x80 PUSH1 0x40 MSTORE CALLVALUE DUP1 ISZERO PUSH2 0x10 JUMPI PUSH1 0x0 DUP1 REVERT JUMPDEST POP PUSH2 0x8F1 DUP1 PUSH2 0x20 PUSH1 0x0 CODECOPY PUSH1 0x0 RETURN INVALID PUSH1 0x80 PUSH1 0x40 MSTORE PUSH1 0x4 CALLDATASIZE LT PUSH2 0x69 JUMPI PUSH1 0x0 CALLDATALOAD PUSH1 0xE0 SHR DUP1 PUSH4 0xB05F579E GT PUSH2 0x43 JUMPI DUP1 PUSH4 0xB05F579E EQ PUSH2 0xD7 JUMPI DUP1 PUSH4 0xFA3219D5 EQ PUSH2 0xEA JUMPI DUP1 PUSH4 0xFDE1ADDA EQ PUSH2 0x10A JUMPI PUSH1 0x0 DUP1 REVERT JUMPDEST DUP1 PUSH4 0x22B58410 EQ PUSH2 0x75 JUMPI DUP1 PUSH4 0x375734D9 EQ PUSH2 0x97 JUMPI DUP1 PUSH4 0x9C91FCB5 EQ PUSH2 0xB7 JUMPI PUSH1 0x0 DUP1 REVERT JUMPDEST CALLDATASIZE PUSH2 0x70 JUMPI STOP JUMPDEST PUSH1 0x0 DUP1 REVERT JUMPDEST CALLVALUE DUP1 ISZERO PUSH2 0x81 JUMPI PUSH1 0x0 DUP1 REVERT JUMPDEST POP PUSH2 0x95 PUSH2 0x90 CALLDATASIZE PUSH1 0x4 PUSH2 0x55B JUMP JUMPDEST PUSH2 0x11D JUMP JUMPDEST STOP JUMPDEST CALLVALUE DUP1 ISZERO PUSH2 0xA3 JUMPI PUSH1 0x0 DUP1 REVERT JUMPDEST POP PUSH2 0x95 PUSH2 0xB2 CALLDATASIZE PUSH1 0x4 PUSH2 0x55B JUMP JUMPDEST PUSH2 0x28A JUMP JUMPDEST CALLVALUE DUP1 ISZERO PUSH2 0xC3 JUMPI PUSH1 0x0 DUP1 REVERT JUMPDEST POP PUSH2 0x95 PUSH2 0xD2 CALLDATASIZE PUSH1 0x4 PUSH2 0x55B JUMP JUMPDEST PUSH2 0x2C7 JUMP JUMPDEST PUSH2 0x95 PUSH2 0xE5 CALLDATASIZE PUSH1 0x4 PUSH2 0x5DD JUMP JUMPDEST PUSH2 0x304 JUMP JUMPDEST CALLVALUE DUP1 ISZERO PUSH2 0xF6 JUMPI PUSH1 0x0 DUP1 REVERT JUMPDEST POP PUSH2 0x95 PUSH2 0x105 CALLDATASIZE PUSH1 0x4 PUSH2 0x55B JUMP JUMPDEST PUSH2 0x46E JUMP JUMPDEST PUSH2 0x95 PUSH2 0x118 CALLDATASIZE PUSH1 0x4 PUSH2 0x5DD JUMP JUMPDEST PUSH2 0x4AB JUMP JUMPDEST PUSH1 0x0 DUP1 DUP9 PUSH20 0xFFFFFFFFFFFFFFFFFFFFFFFFFFFFFFFFFFFFFFFF AND PUSH4 0x8803DBEE PUSH1 0xE0 SHL DUP10 DUP10 DUP10 DUP10 DUP10 DUP10 PUSH1 0x40 MLOAD PUSH1 0x24 ADD PUSH2 0x15A SWAP7 SWAP6 SWAP5 SWAP4 SWAP3 SWAP2 SWAP1 PUSH2 0x6A8 JUMP JUMPDEST PUSH1 0x40 DUP1 MLOAD PUSH32 0xFFFFFFFFFFFFFFFFFFFFFFFFFFFFFFFFFFFFFFFFFFFFFFFFFFFFFFFFFFFFFFE0 DUP2 DUP5 SUB ADD DUP2 MSTORE SWAP2 DUP2 MSTORE PUSH1 0x20 DUP3 ADD DUP1 MLOAD PUSH28 0xFFFFFFFFFFFFFFFFFFFFFFFFFFFFFFFFFFFFFFFFFFFFFFFFFFFFFFFF AND PUSH32 0xFFFFFFFF00000000000000000000000000000000000000000000000000000000 SWAP1 SWAP5 AND SWAP4 SWAP1 SWAP4 OR SWAP1 SWAP3 MSTORE SWAP1 MLOAD PUSH2 0x1E3 SWAP2 SWAP1 PUSH2 0x6F3 JUMP JUMPDEST PUSH1 0x0 PUSH1 0x40 MLOAD DUP1 DUP4 SUB DUP2 DUP6 GAS DELEGATECALL SWAP2 POP POP RETURNDATASIZE DUP1 PUSH1 0x0 DUP2 EQ PUSH2 0x21E JUMPI PUSH1 0x40 MLOAD SWAP2 POP PUSH1 0x1F NOT PUSH1 0x3F RETURNDATASIZE ADD AND DUP3 ADD PUSH1 0x40 MSTORE RETURNDATASIZE DUP3 MSTORE RETURNDATASIZE PUSH1 0x0 PUSH1 0x20 DUP5 ADD RETURNDATACOPY PUSH2 0x223 JUMP JUMPDEST PUSH1 0x60 SWAP2 POP JUMPDEST POP SWAP2 POP SWAP2 POP DUP2 PUSH2 0x235 JUMPI PUSH2 0x235 PUSH2 0x722 JUMP JUMPDEST PUSH32 0x4CC17991E3610E3400E74A8306AA421DAAEE1E3446FA22B490604610999E10B3 DUP2 DUP1 PUSH1 0x20 ADD SWAP1 MLOAD DUP2 ADD SWAP1 PUSH2 0x26A SWAP2 SWAP1 PUSH2 0x780 JUMP JUMPDEST PUSH1 0x40 MLOAD PUSH2 0x277 SWAP2 SWAP1 PUSH2 0x85C JUMP JUMPDEST PUSH1 0x40 MLOAD DUP1 SWAP2 SUB SWAP1 LOG1 POP POP POP POP POP POP POP POP POP JUMP JUMPDEST PUSH1 0x0 DUP1 DUP9 PUSH20 0xFFFFFFFFFFFFFFFFFFFFFFFFFFFFFFFFFFFFFFFF AND PUSH4 0x38ED1739 PUSH1 0xE0 SHL DUP10 DUP10 DUP10 DUP10 DUP10 DUP10 PUSH1 0x40 MLOAD PUSH1 0x24 ADD PUSH2 0x15A SWAP7 SWAP6 SWAP5 SWAP4 SWAP3 SWAP2 SWAP1 PUSH2 0x6A8 JUMP JUMPDEST PUSH1 0x0 DUP1 DUP9 PUSH20 0xFFFFFFFFFFFFFFFFFFFFFFFFFFFFFFFFFFFFFFFF AND PUSH4 0x18CBAFE5 PUSH1 0xE0 SHL DUP10 DUP10 DUP10 DUP10 DUP10 DUP10 PUSH1 0x40 MLOAD PUSH1 0x24 ADD PUSH2 0x15A SWAP7 SWAP6 SWAP5 SWAP4 SWAP3 SWAP2 SWAP1 PUSH2 0x6A8 JUMP JUMPDEST PUSH1 0x0 DUP1 DUP8 PUSH20 0xFFFFFFFFFFFFFFFFFFFFFFFFFFFFFFFFFFFFFFFF AND PUSH4 0xFB3BDB41 PUSH1 0xE0 SHL DUP9 DUP9 DUP9 DUP9 DUP9 PUSH1 0x40 MLOAD PUSH1 0x24 ADD PUSH2 0x33F SWAP6 SWAP5 SWAP4 SWAP3 SWAP2 SWAP1 PUSH2 0x8A0 JUMP JUMPDEST PUSH1 0x40 DUP1 MLOAD PUSH32 0xFFFFFFFFFFFFFFFFFFFFFFFFFFFFFFFFFFFFFFFFFFFFFFFFFFFFFFFFFFFFFFE0 DUP2 DUP5 SUB ADD DUP2 MSTORE SWAP2 DUP2 MSTORE PUSH1 0x20 DUP3 ADD DUP1 MLOAD PUSH28 0xFFFFFFFFFFFFFFFFFFFFFFFFFFFFFFFFFFFFFFFFFFFFFFFFFFFFFFFF AND PUSH32 0xFFFFFFFF00000000000000000000000000000000000000000000000000000000 SWAP1 SWAP5 AND SWAP4 SWAP1 SWAP4 OR SWAP1 SWAP3 MSTORE SWAP1 MLOAD PUSH2 0x3C8 SWAP2 SWAP1 PUSH2 0x6F3 JUMP JUMPDEST PUSH1 0x0 PUSH1 0x40 MLOAD DUP1 DUP4 SUB DUP2 DUP6 GAS DELEGATECALL SWAP2 POP POP RETURNDATASIZE DUP1 PUSH1 0x0 DUP2 EQ PUSH2 0x403 JUMPI PUSH1 0x40 MLOAD SWAP2 POP PUSH1 0x1F NOT PUSH1 0x3F RETURNDATASIZE ADD AND DUP3 ADD PUSH1 0x40 MSTORE RETURNDATASIZE DUP3 MSTORE RETURNDATASIZE PUSH1 0x0 PUSH1 0x20 DUP5 ADD RETURNDATACOPY PUSH2 0x408 JUMP JUMPDEST PUSH1 0x60 SWAP2 POP JUMPDEST POP SWAP2 POP SWAP2 POP DUP2 PUSH2 0x41A JUMPI PUSH2 0x41A PUSH2 0x722 JUMP JUMPDEST PUSH32 0x4CC17991E3610E3400E74A8306AA421DAAEE1E3446FA22B490604610999E10B3 DUP2 DUP1 PUSH1 0x20 ADD SWAP1 MLOAD DUP2 ADD SWAP1 PUSH2 0x44F SWAP2 SWAP1 PUSH2 0x780 JUMP JUMPDEST PUSH1 0x40 MLOAD PUSH2 0x45C SWAP2 SWAP1 PUSH2 0x85C JUMP JUMPDEST PUSH1 0x40 MLOAD DUP1 SWAP2 SUB SWAP1 LOG1 POP POP POP POP POP POP POP POP JUMP JUMPDEST PUSH1 0x0 DUP1 DUP9 PUSH20 0xFFFFFFFFFFFFFFFFFFFFFFFFFFFFFFFFFFFFFFFF AND PUSH4 0x4A25D94A PUSH1 0xE0 SHL DUP10 DUP10 DUP10 DUP10 DUP10 DUP10 PUSH1 0x40 MLOAD PUSH1 0x24 ADD PUSH2 0x15A SWAP7 SWAP6 SWAP5 SWAP4 SWAP3 SWAP2 SWAP1 PUSH2 0x6A8 JUMP JUMPDEST PUSH1 0x0 DUP1 DUP8 PUSH20 0xFFFFFFFFFFFFFFFFFFFFFFFFFFFFFFFFFFFFFFFF AND PUSH4 0x7FF36AB5 PUSH1 0xE0 SHL DUP9 DUP9 DUP9 DUP9 DUP9 PUSH1 0x40 MLOAD PUSH1 0x24 ADD PUSH2 0x33F SWAP6 SWAP5 SWAP4 SWAP3 SWAP2 SWAP1 PUSH2 0x8A0 JUMP JUMPDEST DUP1 CALLDATALOAD PUSH20 0xFFFFFFFFFFFFFFFFFFFFFFFFFFFFFFFFFFFFFFFF DUP2 AND DUP2 EQ PUSH2 0x50A JUMPI PUSH1 0x0 DUP1 REVERT JUMPDEST SWAP2 SWAP1 POP JUMP JUMPDEST PUSH1 0x0 DUP1 DUP4 PUSH1 0x1F DUP5 ADD SLT PUSH2 0x521 JUMPI PUSH1 0x0 DUP1 REVERT JUMPDEST POP DUP2 CALLDATALOAD PUSH8 0xFFFFFFFFFFFFFFFF DUP2 GT ISZERO PUSH2 0x539 JUMPI PUSH1 0x0 DUP1 REVERT JUMPDEST PUSH1 0x20 DUP4 ADD SWAP2 POP DUP4 PUSH1 0x20 DUP3 PUSH1 0x5 SHL DUP6 ADD ADD GT ISZERO PUSH2 0x554 JUMPI PUSH1 0x0 DUP1 REVERT JUMPDEST SWAP3 POP SWAP3 SWAP1 POP JUMP JUMPDEST PUSH1 0x0 DUP1 PUSH1 0x0 DUP1 PUSH1 0x0 DUP1 PUSH1 0x0 PUSH1 0xC0 DUP9 DUP11 SUB SLT ISZERO PUSH2 0x576 JUMPI PUSH1 0x0 DUP1 REVERT JUMPDEST PUSH2 0x57F DUP9 PUSH2 0x4E6 JUMP JUMPDEST SWAP7 POP PUSH1 0x20 DUP9 ADD CALLDATALOAD SWAP6 POP PUSH1 0x40 DUP9 ADD CALLDATALOAD SWAP5 POP PUSH1 0x60 DUP9 ADD CALLDATALOAD PUSH8 0xFFFFFFFFFFFFFFFF DUP2 GT ISZERO PUSH2 0x5A9 JUMPI PUSH1 0x0 DUP1 REVERT JUMPDEST PUSH2 0x5B5 DUP11 DUP3 DUP12 ADD PUSH2 0x50F JUMP JUMPDEST SWAP1 SWAP6 POP SWAP4 POP PUSH2 0x5C8 SWAP1 POP PUSH1 0x80 DUP10 ADD PUSH2 0x4E6 JUMP JUMPDEST SWAP2 POP PUSH1 0xA0 DUP9 ADD CALLDATALOAD SWAP1 POP SWAP3 SWAP6 SWAP9 SWAP2 SWAP5 SWAP8 POP SWAP3 SWAP6 POP JUMP JUMPDEST PUSH1 0x0 DUP1 PUSH1 0x0 DUP1 PUSH1 0x0 DUP1 PUSH1 0xA0 DUP8 DUP10 SUB SLT ISZERO PUSH2 0x5F6 JUMPI PUSH1 0x0 DUP1 REVERT JUMPDEST PUSH2 0x5FF DUP8 PUSH2 0x4E6 JUMP JUMPDEST SWAP6 POP PUSH1 0x20 DUP8 ADD CALLDATALOAD SWAP5 POP PUSH1 0x40 DUP8 ADD CALLDATALOAD PUSH8 0xFFFFFFFFFFFFFFFF DUP2 GT ISZERO PUSH2 0x622 JUMPI PUSH1 0x0 DUP1 REVERT JUMPDEST PUSH2 0x62E DUP10 DUP3 DUP11 ADD PUSH2 0x50F JUMP JUMPDEST SWAP1 SWAP6 POP SWAP4 POP PUSH2 0x641 SWAP1 POP PUSH1 0x60 DUP9 ADD PUSH2 0x4E6 JUMP JUMPDEST SWAP2 POP PUSH1 0x80 DUP8 ADD CALLDATALOAD SWAP1 POP SWAP3 SWAP6 POP SWAP3 SWAP6 POP SWAP3 SWAP6 JUMP JUMPDEST DUP2 DUP4 MSTORE PUSH1 0x0 PUSH1 0x20 DUP1 DUP6 ADD SWAP5 POP DUP3 PUSH1 0x0 JUMPDEST DUP6 DUP2 LT ISZERO PUSH2 0x69D JUMPI PUSH20 0xFFFFFFFFFFFFFFFFFFFFFFFFFFFFFFFFFFFFFFFF PUSH2 0x68A DUP4 PUSH2 0x4E6 JUMP JUMPDEST AND DUP8 MSTORE SWAP6 DUP3 ADD SWAP6 SWAP1 DUP3 ADD SWAP1 PUSH1 0x1 ADD PUSH2 0x664 JUMP JUMPDEST POP SWAP5 SWAP6 SWAP5 POP POP POP POP POP JUMP JUMPDEST DUP7 DUP2 MSTORE DUP6 PUSH1 0x20 DUP3 ADD MSTORE PUSH1 0xA0 PUSH1 0x40 DUP3 ADD MSTORE PUSH1 0x0 PUSH2 0x6C8 PUSH1 0xA0 DUP4 ADD DUP7 DUP9 PUSH2 0x654 JUMP JUMPDEST PUSH20 0xFFFFFFFFFFFFFFFFFFFFFFFFFFFFFFFFFFFFFFFF SWAP5 SWAP1 SWAP5 AND PUSH1 0x60 DUP4 ADD MSTORE POP PUSH1 0x80 ADD MSTORE SWAP5 SWAP4 POP POP POP POP JUMP JUMPDEST PUSH1 0x0 DUP3 MLOAD PUSH1 0x0 JUMPDEST DUP2 DUP2 LT ISZERO PUSH2 0x714 JUMPI PUSH1 0x20 DUP2 DUP7 ADD DUP2 ADD MLOAD DUP6 DUP4 ADD MSTORE ADD PUSH2 0x6FA JUMP JUMPDEST POP PUSH1 0x0 SWAP3 ADD SWAP2 DUP3 MSTORE POP SWAP2 SWAP1 POP JUMP JUMPDEST PUSH32 0x4E487B7100000000000000000000000000000000000000000000000000000000 PUSH1 0x0 MSTORE PUSH1 0x1 PUSH1 0x4 MSTORE PUSH1 0x24 PUSH1 0x0 REVERT JUMPDEST PUSH32 0x4E487B7100000000000000000000000000000000000000000000000000000000 PUSH1 0x0 MSTORE PUSH1 0x41 PUSH1 0x4 MSTORE PUSH1 0x24 PUSH1 0x0 REVERT JUMPDEST PUSH1 0x0 PUSH1 0x20 DUP1 DUP4 DUP6 SUB SLT ISZERO PUSH2 0x793 JUMPI PUSH1 0x0 DUP1 REVERT JUMPDEST DUP3 MLOAD PUSH8 0xFFFFFFFFFFFFFFFF DUP1 DUP3 GT ISZERO PUSH2 0x7AB JUMPI PUSH1 0x0 DUP1 REVERT JUMPDEST DUP2 DUP6 ADD SWAP2 POP DUP6 PUSH1 0x1F DUP4 ADD SLT PUSH2 0x7BF JUMPI PUSH1 0x0 DUP1 REVERT JUMPDEST DUP2 MLOAD DUP2 DUP2 GT ISZERO PUSH2 0x7D1 JUMPI PUSH2 0x7D1 PUSH2 0x751 JUMP JUMPDEST DUP1 PUSH1 0x5 SHL PUSH1 0x40 MLOAD PUSH32 0xFFFFFFFFFFFFFFFFFFFFFFFFFFFFFFFFFFFFFFFFFFFFFFFFFFFFFFFFFFFFFFE0 PUSH1 0x3F DUP4 ADD AND DUP2 ADD DUP2 DUP2 LT DUP6 DUP3 GT OR ISZERO PUSH2 0x814 JUMPI PUSH2 0x814 PUSH2 0x751 JUMP JUMPDEST PUSH1 0x40 MSTORE SWAP2 DUP3 MSTORE DUP5 DUP3 ADD SWAP3 POP DUP4 DUP2 ADD DUP6 ADD SWAP2 DUP9 DUP4 GT ISZERO PUSH2 0x832 JUMPI PUSH1 0x0 DUP1 REVERT JUMPDEST SWAP4 DUP6 ADD SWAP4 JUMPDEST DUP3 DUP6 LT ISZERO PUSH2 0x850 JUMPI DUP5 MLOAD DUP5 MSTORE SWAP4 DUP6 ADD SWAP4 SWAP3 DUP6 ADD SWAP3 PUSH2 0x837 JUMP JUMPDEST SWAP9 SWAP8 POP POP POP POP POP POP POP POP JUMP JUMPDEST PUSH1 0x20 DUP1 DUP3 MSTORE DUP3 MLOAD DUP3 DUP3 ADD DUP2 SWAP1 MSTORE PUSH1 0x0 SWAP2 SWAP1 DUP5 DUP3 ADD SWAP1 PUSH1 0x40 DUP6 ADD SWAP1 DUP5 JUMPDEST DUP2 DUP2 LT ISZERO PUSH2 0x894 JUMPI DUP4 MLOAD DUP4 MSTORE SWAP3 DUP5 ADD SWAP3 SWAP2 DUP5 ADD SWAP2 PUSH1 0x1 ADD PUSH2 0x878 JUMP JUMPDEST POP SWAP1 SWAP7 SWAP6 POP POP POP POP POP POP JUMP JUMPDEST DUP6 DUP2 MSTORE PUSH1 0x80 PUSH1 0x20 DUP3 ADD MSTORE PUSH1 0x0 PUSH2 0x8BA PUSH1 0x80 DUP4 ADD DUP7 DUP9 PUSH2 0x654 JUMP JUMPDEST PUSH20 0xFFFFFFFFFFFFFFFFFFFFFFFFFFFFFFFFFFFFFFFF SWAP5 SWAP1 SWAP5 AND PUSH1 0x40 DUP4 ADD MSTORE POP PUSH1 0x60 ADD MSTORE SWAP4 SWAP3 POP POP POP JUMP INVALID LOG1 PUSH5 0x736F6C6343 STOP ADDMOD AND STOP EXP "},"methodIdentifiers":{"swapETHForExactTokens(address,uint256,address[],address,uint256)":"b05f579e","swapExactETHForTokens(address,uint256,address[],address,uint256)":"fde1adda","swapExactTokensForETH(address,uint256,uint256,address[],address,uint256)":"9c91fcb5","swapExactTokensForTokens(address,uint256,uint256,address[],address,uint256)":"375734d9","swapTokensForExactETH(address,uint256,uint256,address[],address,uint256)":"fa3219d5","swapTokensForExactTokens(address,uint256,uint256,address[],address,uint256)":"22b58410"}}}}}