{
  "_format": "hh-sol-artifact-1",
  "contractName": "RouterEventEmitter",
  "sourceName": "contracts/test/RouterEventEmitter.sol",
  "abi": [
    {
      "anonymous": false,
      "inputs": [
        {
          "indexed": false,
          "internalType": "uint256[]",
          "name": "amounts",
          "type": "uint256[]"
        }
      ],
      "name": "Amounts",
      "type": "event"
    },
    {
      "inputs": [
        {
          "internalType": "address",
          "name": "router",
          "type": "address"
        },
        {
          "internalType": "uint256",
          "name": "amountOut",
          "type": "uint256"
        },
        {
          "internalType": "address[]",
          "name": "path",
          "type": "address[]"
        },
        {
          "internalType": "address",
          "name": "to",
          "type": "address"
        },
        {
          "internalType": "uint256",
          "name": "deadline",
          "type": "uint256"
        }
      ],
      "name": "swapETHForExactTokens",
      "outputs": [],
      "stateMutability": "payable",
      "type": "function"
    },
    {
      "inputs": [
        {
          "internalType": "address",
          "name": "router",
          "type": "address"
        },
        {
          "internalType": "uint256",
          "name": "amountOutMin",
          "type": "uint256"
        },
        {
          "internalType": "address[]",
          "name": "path",
          "type": "address[]"
        },
        {
          "internalType": "address",
          "name": "to",
          "type": "address"
        },
        {
          "internalType": "uint256",
          "name": "deadline",
          "type": "uint256"
        }
      ],
      "name": "swapExactETHForTokens",
      "outputs": [],
      "stateMutability": "payable",
      "type": "function"
    },
    {
      "inputs": [
        {
          "internalType": "address",
          "name": "router",
          "type": "address"
        },
        {
          "internalType": "uint256",
          "name": "amountIn",
          "type": "uint256"
        },
        {
          "internalType": "uint256",
          "name": "amountOutMin",
          "type": "uint256"
        },
        {
          "internalType": "address[]",
          "name": "path",
          "type": "address[]"
        },
        {
          "internalType": "address",
          "name": "to",
          "type": "address"
        },
        {
          "internalType": "uint256",
          "name": "deadline",
          "type": "uint256"
        }
      ],
      "name": "swapExactTokensForETH",
      "outputs": [],
      "stateMutability": "nonpayable",
      "type": "function"
    },
    {
      "inputs": [
        {
          "internalType": "address",
          "name": "router",
          "type": "address"
        },
        {
          "internalType": "uint256",
          "name": "amountIn",
          "type": "uint256"
        },
        {
          "internalType": "uint256",
          "name": "amountOutMin",
          "type": "uint256"
        },
        {
          "internalType": "address[]",
          "name": "path",
          "type": "address[]"
        },
        {
          "internalType": "address",
          "name": "to",
          "type": "address"
        },
        {
          "internalType": "uint256",
          "name": "deadline",
          "type": "uint256"
        }
      ],
      "name": "swapExactTokensForTokens",
      "outputs": [],
      "stateMutability": "nonpayable",
      "type": "function"
    },
    {
      "inputs": [
        {
          "internalType": "address",
          "name": "router",
          "type": "address"
        },
        {
          "internalType": "uint256",
          "name": "amountOut",
          "type": "uint256"
        },
        {
          "internalType": "uint256",
          "name": "amountInMax",
          "type": "uint256"
        },
        {
          "internalType": "address[]",
          "name": "path",
          "type": "address[]"
        },
        {
          "internalType": "address",
          "name": "to",
          "type": "address"
        },
        {
          "internalType": "uint256",
          "name": "deadline",
          "type": "uint256"
        }
      ],
      "name": "swapTokensForExactETH",
      "outputs": [],
      "stateMutability": "nonpayable",
      "type": "function"
    },
    {
      "inputs": [
        {
          "internalType": "address",
          "name": "router",
          "type": "address"
        },
        {
          "internalType": "uint256",
          "name": "amountOut",
          "type": "uint256"
        },
        {
          "internalType": "uint256",
          "name": "amountInMax",
          "type": "uint256"
        },
        {
          "internalType": "address[]",
          "name": "path",
          "type": "address[]"
        },
        {
          "internalType": "address",
          "name": "to",
          "type": "address"
        },
        {
          "internalType": "uint256",
          "name": "deadline",
          "type": "uint256"
        }
      ],
      "name": "swapTokensForExactTokens",
      "outputs": [],
      "stateMutability": "nonpayable",
      "type": "function"
    },
    {
      "stateMutability": "payable",
      "type": "receive"
    }
  ],
  "bytecode": "0x608060405234801561001057600080fd5b506108f1806100206000396000f3fe6080604052600436106100695760003560e01c8063b05f579e11610043578063b05f579e146100d7578063fa3219d5146100ea578063fde1adda1461010a57600080fd5b806322b5841014610075578063375734d9146100975780639c91fcb5146100b757600080fd5b3661007057005b600080fd5b34801561008157600080fd5b5061009561009036600461055b565b61011d565b005b3480156100a357600080fd5b506100956100b236600461055b565b61028a565b3480156100c357600080fd5b506100956100d236600461055b565b6102c7565b6100956100e53660046105dd565b610304565b3480156100f657600080fd5b5061009561010536600461055b565b61046e565b6100956101183660046105dd565b6104ab565b6000808873ffffffffffffffffffffffffffffffffffffffff16638803dbee60e01b89898989898960405160240161015a969594939291906106a8565b604080517fffffffffffffffffffffffffffffffffffffffffffffffffffffffffffffffe08184030181529181526020820180517bffffffffffffffffffffffffffffffffffffffffffffffffffffffff167fffffffff000000000000000000000000000000000000000000000000000000009094169390931790925290516101e391906106f3565b600060405180830381855af49150503d806000811461021e576040519150601f19603f3d011682016040523d82523d6000602084013e610223565b606091505b50915091508161023557610235610722565b7f4cc17991e3610e3400e74a8306aa421daaee1e3446fa22b490604610999e10b38180602001905181019061026a9190610780565b604051610277919061085c565b60405180910390a1505050505050505050565b6000808873ffffffffffffffffffffffffffffffffffffffff166338ed173960e01b89898989898960405160240161015a969594939291906106a8565b6000808873ffffffffffffffffffffffffffffffffffffffff166318cbafe560e01b89898989898960405160240161015a969594939291906106a8565b6000808773ffffffffffffffffffffffffffffffffffffffff1663fb3bdb4160e01b888888888860405160240161033f9594939291906108a0565b604080517fffffffffffffffffffffffffffffffffffffffffffffffffffffffffffffffe08184030181529181526020820180517bffffffffffffffffffffffffffffffffffffffffffffffffffffffff167fffffffff000000000000000000000000000000000000000000000000000000009094169390931790925290516103c891906106f3565b600060405180830381855af49150503d8060008114610403576040519150601f19603f3d011682016040523d82523d6000602084013e610408565b606091505b50915091508161041a5761041a610722565b7f4cc17991e3610e3400e74a8306aa421daaee1e3446fa22b490604610999e10b38180602001905181019061044f9190610780565b60405161045c919061085c565b60405180910390a15050505050505050565b6000808873ffffffffffffffffffffffffffffffffffffffff16634a25d94a60e01b89898989898960405160240161015a969594939291906106a8565b6000808773ffffffffffffffffffffffffffffffffffffffff16637ff36ab560e01b888888888860405160240161033f9594939291906108a0565b803573ffffffffffffffffffffffffffffffffffffffff8116811461050a57600080fd5b919050565b60008083601f84011261052157600080fd5b50813567ffffffffffffffff81111561053957600080fd5b6020830191508360208260051b850101111561055457600080fd5b9250929050565b600080600080600080600060c0888a03121561057657600080fd5b61057f886104e6565b96506020880135955060408801359450606088013567ffffffffffffffff8111156105a957600080fd5b6105b58a828b0161050f565b90955093506105c89050608089016104e6565b915060a0880135905092959891949750929550565b60008060008060008060a087890312156105f657600080fd5b6105ff876104e6565b955060208701359450604087013567ffffffffffffffff81111561062257600080fd5b61062e89828a0161050f565b90955093506106419050606088016104e6565b9150608087013590509295509295509295565b8183526000602080850194508260005b8581101561069d5773ffffffffffffffffffffffffffffffffffffffff61068a836104e6565b1687529582019590820190600101610664565b509495945050505050565b86815285602082015260a0604082015260006106c860a083018688610654565b73ffffffffffffffffffffffffffffffffffffffff9490941660608301525060800152949350505050565b6000825160005b8181101561071457602081860181015185830152016106fa565b506000920191825250919050565b7f4e487b7100000000000000000000000000000000000000000000000000000000600052600160045260246000fd5b7f4e487b7100000000000000000000000000000000000000000000000000000000600052604160045260246000fd5b6000602080838503121561079357600080fd5b825167ffffffffffffffff808211156107ab57600080fd5b818501915085601f8301126107bf57600080fd5b8151818111156107d1576107d1610751565b8060051b6040517fffffffffffffffffffffffffffffffffffffffffffffffffffffffffffffffe0603f8301168101818110858211171561081457610814610751565b60405291825284820192508381018501918883111561083257600080fd5b938501935b8285101561085057845184529385019392850192610837565b98975050505050505050565b6020808252825182820181905260009190848201906040850190845b8181101561089457835183529284019291840191600101610878565b50909695505050505050565b8581526080602082015260006108ba608083018688610654565b73ffffffffffffffffffffffffffffffffffffffff9490941660408301525060600152939250505056fea164736f6c6343000816000a",
  "linkReferences": {},
  "deployedLinkReferences": {}
}